{
  "_format": "hh-sol-artifact-1",
  "contractName": "FileNFT",
  "sourceName": "contracts/kezayya.sol",
  "abi": [
    {
      "inputs": [],
      "stateMutability": "nonpayable",
      "type": "constructor"
    },
    {
      "anonymous": false,
      "inputs": [
        {
          "indexed": true,
          "internalType": "address",
          "name": "owner",
          "type": "address"
        },
        {
          "indexed": true,
          "internalType": "address",
          "name": "approved",
          "type": "address"
        },
        {
          "indexed": true,
          "internalType": "uint256",
          "name": "tokenId",
          "type": "uint256"
        }
      ],
      "name": "Approval",
      "type": "event"
    },
    {
      "anonymous": false,
      "inputs": [
        {
          "indexed": true,
          "internalType": "address",
          "name": "owner",
          "type": "address"
        },
        {
          "indexed": true,
          "internalType": "address",
          "name": "operator",
          "type": "address"
        },
        {
          "indexed": false,
          "internalType": "bool",
          "name": "approved",
          "type": "bool"
        }
      ],
      "name": "ApprovalForAll",
      "type": "event"
    },
    {
      "anonymous": false,
      "inputs": [
        {
          "indexed": false,
          "internalType": "address",
          "name": "account",
          "type": "address"
        }
      ],
      "name": "MonthlyPaymentMade",
      "type": "event"
    },
    {
      "anonymous": false,
      "inputs": [
        {
          "indexed": true,
          "internalType": "uint256",
          "name": "tokenId",
          "type": "uint256"
        },
        {
          "indexed": false,
          "internalType": "address",
          "name": "owner",
          "type": "address"
        },
        {
          "indexed": false,
          "internalType": "address",
          "name": "storageDrive",
          "type": "address"
        },
        {
          "indexed": false,
          "internalType": "bool",
          "name": "shared",
          "type": "bool"
        }
      ],
      "name": "StorageItemCreated",
      "type": "event"
    },
    {
      "anonymous": false,
      "inputs": [
        {
          "indexed": false,
          "internalType": "address",
          "name": "account",
          "type": "address"
        }
      ],
      "name": "SubscriptionMade",
      "type": "event"
    },
    {
      "anonymous": false,
      "inputs": [
        {
          "indexed": true,
          "internalType": "address",
          "name": "from",
          "type": "address"
        },
        {
          "indexed": true,
          "internalType": "address",
          "name": "to",
          "type": "address"
        },
        {
          "indexed": true,
          "internalType": "uint256",
          "name": "tokenId",
          "type": "uint256"
        }
      ],
      "name": "Transfer",
      "type": "event"
    },
    {
      "inputs": [
        {
          "internalType": "address",
          "name": "to",
          "type": "address"
        },
        {
          "internalType": "uint256",
          "name": "tokenId",
          "type": "uint256"
        }
      ],
      "name": "approve",
      "outputs": [],
      "stateMutability": "nonpayable",
      "type": "function"
    },
    {
      "inputs": [
        {
          "internalType": "address",
          "name": "owner",
          "type": "address"
        }
      ],
      "name": "balanceOf",
      "outputs": [
        {
          "internalType": "uint256",
          "name": "",
          "type": "uint256"
        }
      ],
      "stateMutability": "view",
      "type": "function"
    },
    {
      "inputs": [
        {
          "internalType": "string",
          "name": "tokenURI",
          "type": "string"
        }
      ],
      "name": "createFile",
      "outputs": [
        {
          "internalType": "uint256",
          "name": "",
          "type": "uint256"
        }
      ],
      "stateMutability": "payable",
      "type": "function"
    },
    {
      "inputs": [
        {
          "internalType": "uint256",
          "name": "tokenId",
          "type": "uint256"
        }
      ],
      "name": "createFileShare",
      "outputs": [],
      "stateMutability": "payable",
      "type": "function"
    },
    {
      "inputs": [],
      "name": "fetchAllStorageItems",
      "outputs": [
        {
          "components": [
            {
              "internalType": "uint256",
              "name": "tokenId",
              "type": "uint256"
            },
            {
              "internalType": "address",
              "name": "owner",
              "type": "address"
            },
            {
              "internalType": "address",
              "name": "storageDrive",
              "type": "address"
            },
            {
              "internalType": "bool",
              "name": "shared",
              "type": "bool"
            }
          ],
          "internalType": "struct FileNFT.StorageItem[]",
          "name": "",
          "type": "tuple[]"
        }
      ],
      "stateMutability": "view",
      "type": "function"
    },
    {
      "inputs": [],
      "name": "fetchMyFiles",
      "outputs": [
        {
          "components": [
            {
              "internalType": "uint256",
              "name": "tokenId",
              "type": "uint256"
            },
            {
              "internalType": "address",
              "name": "owner",
              "type": "address"
            },
            {
              "internalType": "address",
              "name": "storageDrive",
              "type": "address"
            },
            {
              "internalType": "bool",
              "name": "shared",
              "type": "bool"
            }
          ],
          "internalType": "struct FileNFT.StorageItem[]",
          "name": "",
          "type": "tuple[]"
        }
      ],
      "stateMutability": "view",
      "type": "function"
    },
    {
      "inputs": [
        {
          "internalType": "uint256",
          "name": "tokenId",
          "type": "uint256"
        }
      ],
      "name": "getApproved",
      "outputs": [
        {
          "internalType": "address",
          "name": "",
          "type": "address"
        }
      ],
      "stateMutability": "view",
      "type": "function"
    },
    {
      "inputs": [
        {
          "internalType": "address",
          "name": "owner",
          "type": "address"
        },
        {
          "internalType": "address",
          "name": "operator",
          "type": "address"
        }
      ],
      "name": "isApprovedForAll",
      "outputs": [
        {
          "internalType": "bool",
          "name": "",
          "type": "bool"
        }
      ],
      "stateMutability": "view",
      "type": "function"
    },
    {
      "inputs": [],
      "name": "name",
      "outputs": [
        {
          "internalType": "string",
          "name": "",
          "type": "string"
        }
      ],
      "stateMutability": "view",
      "type": "function"
    },
    {
      "inputs": [
        {
          "internalType": "uint256",
          "name": "tokenId",
          "type": "uint256"
        }
      ],
      "name": "ownerOf",
      "outputs": [
        {
          "internalType": "address",
          "name": "",
          "type": "address"
        }
      ],
      "stateMutability": "view",
      "type": "function"
    },
    {
      "inputs": [],
      "name": "payMonthlyValue",
      "outputs": [],
      "stateMutability": "payable",
      "type": "function"
    },
    {
      "inputs": [
        {
          "internalType": "address",
          "name": "from",
          "type": "address"
        },
        {
          "internalType": "address",
          "name": "to",
          "type": "address"
        },
        {
          "internalType": "uint256",
          "name": "tokenId",
          "type": "uint256"
        }
      ],
      "name": "safeTransferFrom",
      "outputs": [],
      "stateMutability": "nonpayable",
      "type": "function"
    },
    {
      "inputs": [
        {
          "internalType": "address",
          "name": "from",
          "type": "address"
        },
        {
          "internalType": "address",
          "name": "to",
          "type": "address"
        },
        {
          "internalType": "uint256",
          "name": "tokenId",
          "type": "uint256"
        },
        {
          "internalType": "bytes",
          "name": "data",
          "type": "bytes"
        }
      ],
      "name": "safeTransferFrom",
      "outputs": [],
      "stateMutability": "nonpayable",
      "type": "function"
    },
    {
      "inputs": [
        {
          "internalType": "address",
          "name": "operator",
          "type": "address"
        },
        {
          "internalType": "bool",
          "name": "approved",
          "type": "bool"
        }
      ],
      "name": "setApprovalForAll",
      "outputs": [],
      "stateMutability": "nonpayable",
      "type": "function"
    },
    {
      "inputs": [],
      "name": "subscribe",
      "outputs": [],
      "stateMutability": "payable",
      "type": "function"
    },
    {
      "inputs": [
        {
          "internalType": "bytes4",
          "name": "interfaceId",
          "type": "bytes4"
        }
      ],
      "name": "supportsInterface",
      "outputs": [
        {
          "internalType": "bool",
          "name": "",
          "type": "bool"
        }
      ],
      "stateMutability": "view",
      "type": "function"
    },
    {
      "inputs": [],
      "name": "symbol",
      "outputs": [
        {
          "internalType": "string",
          "name": "",
          "type": "string"
        }
      ],
      "stateMutability": "view",
      "type": "function"
    },
    {
      "inputs": [
        {
          "internalType": "uint256",
          "name": "tokenId",
          "type": "uint256"
        }
      ],
      "name": "tokenURI",
      "outputs": [
        {
          "internalType": "string",
          "name": "",
          "type": "string"
        }
      ],
      "stateMutability": "view",
      "type": "function"
    },
    {
      "inputs": [
        {
          "internalType": "address",
          "name": "from",
          "type": "address"
        },
        {
          "internalType": "address",
          "name": "to",
          "type": "address"
        },
        {
          "internalType": "uint256",
          "name": "tokenId",
          "type": "uint256"
        }
      ],
      "name": "transferFrom",
      "outputs": [],
      "stateMutability": "nonpayable",
      "type": "function"
    },
    {
      "inputs": [
        {
          "internalType": "uint256",
          "name": "value",
          "type": "uint256"
        }
      ],
      "name": "withdraw",
      "outputs": [],
      "stateMutability": "nonpayable",
      "type": "function"
    }
  ],
  "bytecode": "0x60806040523480156200001157600080fd5b50604051806040016040528060078152602001664b657a6179796160c81b815250604051806040016040528060078152602001664b455a4159594160c81b81525081600090805190602001906200006a929190620000a2565b50805162000080906001906020840190620000a2565b5050600a80546001600160a01b0319163317905550620186a060095562000185565b828054620000b09062000148565b90600052602060002090601f016020900481019282620000d457600085556200011f565b82601f10620000ef57805160ff19168380011785556200011f565b828001600101855582156200011f579182015b828111156200011f57825182559160200191906001019062000102565b506200012d92915062000131565b5090565b5b808211156200012d576000815560010162000132565b600181811c908216806200015d57607f821691505b602082108114156200017f57634e487b7160e01b600052602260045260246000fd5b50919050565b611e5880620001956000396000f3fe60806040526004361061011f5760003560e01c80634dfdc4fb116100a057806395d89b411161006457806395d89b41146102f0578063a22cb46514610305578063b88d4fde14610325578063c87b56dd14610345578063e985e9c51461036557600080fd5b80634dfdc4fb146102725780636352211e1461029357806370a08231146102b35780638f449a05146102d3578063957b5ba3146102db57600080fd5b806323b872dd116100e757806323b872dd146101e85780632e1a7d4d14610208578063347cfeab1461022857806337a899861461023057806342842e0e1461025257600080fd5b806301ffc9a71461012457806306fdde03146101595780630778fa4d1461017b578063081812fc14610190578063095ea7b3146101c8575b600080fd5b34801561013057600080fd5b5061014461013f36600461189a565b6103ae565b60405190151581526020015b60405180910390f35b34801561016557600080fd5b5061016e610400565b604051610150919061190f565b61018e610189366004611922565b610492565b005b34801561019c57600080fd5b506101b06101ab366004611922565b6104c5565b6040516001600160a01b039091168152602001610150565b3480156101d457600080fd5b5061018e6101e3366004611957565b6104ec565b3480156101f457600080fd5b5061018e610203366004611981565b610607565b34801561021457600080fd5b5061018e610223366004611922565b610638565b61018e61077f565b34801561023c57600080fd5b5061024561084d565b60405161015091906119bd565b34801561025e57600080fd5b5061018e61026d366004611981565b6109bb565b610285610280366004611abb565b6109d6565b604051908152602001610150565b34801561029f57600080fd5b506101b06102ae366004611922565b610a10565b3480156102bf57600080fd5b506102856102ce366004611b04565b610a70565b61018e610af6565b3480156102e757600080fd5b50610245610ba1565b3480156102fc57600080fd5b5061016e610d71565b34801561031157600080fd5b5061018e610320366004611b1f565b610d80565b34801561033157600080fd5b5061018e610340366004611b5b565b610d8b565b34801561035157600080fd5b5061016e610360366004611922565b610dc3565b34801561037157600080fd5b50610144610380366004611bd7565b6001600160a01b03918216600090815260056020908152604080832093909416825291909152205460ff1690565b60006001600160e01b031982166380ac58cd60e01b14806103df57506001600160e01b03198216635b5e139f60e01b145b806103fa57506301ffc9a760e01b6001600160e01b03198316145b92915050565b60606000805461040f90611c0a565b80601f016020809104026020016040519081016040528092919081815260200182805461043b90611c0a565b80156104885780601f1061045d57610100808354040283529160200191610488565b820191906000526020600020905b81548152906001019060200180831161046b57829003601f168201915b5050505050905090565b6000818152600c60205260409020600201805460ff60a01b1916600160a01b1790556104c2600880546001019055565b50565b60006104d082610ed4565b506000908152600460205260409020546001600160a01b031690565b60006104f782610a10565b9050806001600160a01b0316836001600160a01b0316141561056a5760405162461bcd60e51b815260206004820152602160248201527f4552433732313a20617070726f76616c20746f2063757272656e74206f776e656044820152603960f91b60648201526084015b60405180910390fd5b336001600160a01b038216148061058657506105868133610380565b6105f85760405162461bcd60e51b815260206004820152603e60248201527f4552433732313a20617070726f76652063616c6c6572206973206e6f7420746f60448201527f6b656e206f776e6572206e6f7220617070726f76656420666f7220616c6c00006064820152608401610561565b6106028383610f33565b505050565b6106113382610fa1565b61062d5760405162461bcd60e51b815260040161056190611c45565b61060283838361101f565b600a546001600160a01b031633146106925760405162461bcd60e51b815260206004820152601860248201527f41646472657373206973206e6f7420746865206f776e657200000000000000006044820152606401610561565b478111156106e25760405162461bcd60e51b815260206004820152601a60248201527f56616c756520686967686572207468616e2062616c616e63652e0000000000006044820152606401610561565b600a546040516000916001600160a01b03169083908381818185875af1925050503d806000811461072f576040519150601f19603f3d011682016040523d82523d6000602084013e610734565b606091505b505090508061077b5760405162461bcd60e51b815260206004820152601360248201527254686572652077617320616e206572726f722160681b6044820152606401610561565b5050565b336000908152600b602052604090205460ff166107d75760405162461bcd60e51b81526020600482015260166024820152751058d8dbdd5b9d081b9bdd081cdd589cd8dc9a58995960521b6044820152606401610561565b60095434146108175760405162461bcd60e51b815260206004820152600c60248201526b2bb937b733903b30b63ab29760a11b6044820152606401610561565b6040513381527f342391d881b260faba344bcdceb81718335063790ef64b017dfe1fbec5eb7d91906020015b60405180910390a1565b6060600061085a60075490565b90506000808267ffffffffffffffff81111561087857610878611a2f565b6040519080825280602002602001820160405280156108ca57816020015b6040805160808101825260008082526020808301829052928201819052606082015282526000199092019101816108965790505b50905060005b838110156109b35730600c60006108e8846001611ca9565b81526020810191909152604001600020600201546001600160a01b031614156109a1576000610918826001611ca9565b6000818152600c602090815260409182902082516080810184528154815260018201546001600160a01b0390811693820193909352600282015492831693810193909352600160a01b90910460ff161515606083015285519293509185908790811061098657610986611cc1565b602090810291909101015261099c600186611ca9565b945050505b806109ab81611cd7565b9150506108d0565b509392505050565b61060283838360405180602001604052806000815250610d8b565b60006109e6600780546001019055565b60006109f160075490565b90506109fd33826111bb565b610a0781846112fd565b6103fa81611397565b6000818152600260205260408120546001600160a01b0316806103fa5760405162461bcd60e51b8152602060048201526018602482015277115490cdcc8c4e881a5b9d985b1a59081d1bdad95b88125160421b6044820152606401610561565b60006001600160a01b038216610ada5760405162461bcd60e51b815260206004820152602960248201527f4552433732313a2061646472657373207a65726f206973206e6f7420612076616044820152683634b21037bbb732b960b91b6064820152608401610561565b506001600160a01b031660009081526003602052604090205490565b336000908152600b602052604090205460ff1615610b565760405162461bcd60e51b815260206004820152601a60248201527f4163636f756e7420616c726561647920737562736372696265640000000000006044820152606401610561565b336000818152600b6020908152604091829020805460ff1916600117905590519182527f0a4aaad73235c04f36913f1a722df062186fab3d31654a6d28265e505d9e16139101610843565b60606000610bae60075490565b905060008060005b83811015610c115733600c6000610bce846001611ca9565b81526020810191909152604001600020600101546001600160a01b03161415610bff57610bfc600184611ca9565b92505b80610c0981611cd7565b915050610bb6565b5060008267ffffffffffffffff811115610c2d57610c2d611a2f565b604051908082528060200260200182016040528015610c7f57816020015b604080516080810182526000808252602080830182905292820181905260608201528252600019909201910181610c4b5790505b50905060005b84811015610d685733600c6000610c9d846001611ca9565b81526020810191909152604001600020600101546001600160a01b03161415610d56576000610ccd826001611ca9565b6000818152600c602090815260409182902082516080810184528154815260018201546001600160a01b0390811693820193909352600282015492831693810193909352600160a01b90910460ff1615156060830152855192935091859087908110610d3b57610d3b611cc1565b6020908102919091010152610d51600186611ca9565b945050505b80610d6081611cd7565b915050610c85565b50949350505050565b60606001805461040f90611c0a565b61077b33838361146a565b610d953383610fa1565b610db15760405162461bcd60e51b815260040161056190611c45565b610dbd84848484611539565b50505050565b6060610dce82610ed4565b60008281526006602052604081208054610de790611c0a565b80601f0160208091040260200160405190810160405280929190818152602001828054610e1390611c0a565b8015610e605780601f10610e3557610100808354040283529160200191610e60565b820191906000526020600020905b815481529060010190602001808311610e4357829003601f168201915b505050505090506000610e7e60408051602081019091526000815290565b9050805160001415610e91575092915050565b815115610ec3578082604051602001610eab929190611cf2565b60405160208183030381529060405292505050919050565b610ecc8461156c565b949350505050565b6000818152600260205260409020546001600160a01b03166104c25760405162461bcd60e51b8152602060048201526018602482015277115490cdcc8c4e881a5b9d985b1a59081d1bdad95b88125160421b6044820152606401610561565b600081815260046020526040902080546001600160a01b0319166001600160a01b0384169081179091558190610f6882610a10565b6001600160a01b03167f8c5be1e5ebec7d5bd14f71427d1e84f3dd0314c0f7b2291e5b200ac8c7c3b92560405160405180910390a45050565b600080610fad83610a10565b9050806001600160a01b0316846001600160a01b03161480610ff457506001600160a01b0380821660009081526005602090815260408083209388168352929052205460ff165b80610ecc5750836001600160a01b031661100d846104c5565b6001600160a01b031614949350505050565b826001600160a01b031661103282610a10565b6001600160a01b0316146110965760405162461bcd60e51b815260206004820152602560248201527f4552433732313a207472616e736665722066726f6d20696e636f72726563742060448201526437bbb732b960d91b6064820152608401610561565b6001600160a01b0382166110f85760405162461bcd60e51b8152602060048201526024808201527f4552433732313a207472616e7366657220746f20746865207a65726f206164646044820152637265737360e01b6064820152608401610561565b611103600082610f33565b6001600160a01b038316600090815260036020526040812080546001929061112c908490611d21565b90915550506001600160a01b038216600090815260036020526040812080546001929061115a908490611ca9565b909155505060008181526002602052604080822080546001600160a01b0319166001600160a01b0386811691821790925591518493918716917fddf252ad1be2c89b69c2b068fc378daa952ba7f163c4a11628f55a4df523b3ef91a4505050565b6001600160a01b0382166112115760405162461bcd60e51b815260206004820181905260248201527f4552433732313a206d696e7420746f20746865207a65726f20616464726573736044820152606401610561565b6000818152600260205260409020546001600160a01b0316156112765760405162461bcd60e51b815260206004820152601c60248201527f4552433732313a20746f6b656e20616c7265616479206d696e746564000000006044820152606401610561565b6001600160a01b038216600090815260036020526040812080546001929061129f908490611ca9565b909155505060008181526002602052604080822080546001600160a01b0319166001600160a01b03861690811790915590518392907fddf252ad1be2c89b69c2b068fc378daa952ba7f163c4a11628f55a4df523b3ef908290a45050565b6000828152600260205260409020546001600160a01b03166113785760405162461bcd60e51b815260206004820152602e60248201527f45524337323155524953746f726167653a2055524920736574206f66206e6f6e60448201526d32bc34b9ba32b73a103a37b5b2b760911b6064820152608401610561565b60008281526006602090815260409091208251610602928401906117eb565b6040805160808101825282815233602080830182815230848601818152600060608701818152898252600c909552969096209451855590516001850180546001600160a01b039283166001600160a01b031990911617905594516002909401805492511515600160a01b026001600160a81b031990931694909516939093171790925561142591908361101f565b60408051338152306020820152600081830152905182917fa68363aa99d6435522e6dc97031114bda913322276d4240fb702c2543bbfd86b919081900360600190a250565b816001600160a01b0316836001600160a01b031614156114cc5760405162461bcd60e51b815260206004820152601960248201527f4552433732313a20617070726f766520746f2063616c6c6572000000000000006044820152606401610561565b6001600160a01b03838116600081815260056020908152604080832094871680845294825291829020805460ff191686151590811790915591519182527f17307eab39ab6107e8899845ad3d59bd9653f200f220920489ca2b5937696c31910160405180910390a3505050565b61154484848461101f565b611550848484846115e0565b610dbd5760405162461bcd60e51b815260040161056190611d38565b606061157782610ed4565b600061158e60408051602081019091526000815290565b905060008151116115ae57604051806020016040528060008152506115d9565b806115b8846116ed565b6040516020016115c9929190611cf2565b6040516020818303038152906040525b9392505050565b60006001600160a01b0384163b156116e257604051630a85bd0160e11b81526001600160a01b0385169063150b7a0290611624903390899088908890600401611d8a565b602060405180830381600087803b15801561163e57600080fd5b505af192505050801561166e575060408051601f3d908101601f1916820190925261166b91810190611dc7565b60015b6116c8573d80801561169c576040519150601f19603f3d011682016040523d82523d6000602084013e6116a1565b606091505b5080516116c05760405162461bcd60e51b815260040161056190611d38565b805181602001fd5b6001600160e01b031916630a85bd0160e11b149050610ecc565b506001949350505050565b6060816117115750506040805180820190915260018152600360fc1b602082015290565b8160005b811561173b578061172581611cd7565b91506117349050600a83611dfa565b9150611715565b60008167ffffffffffffffff81111561175657611756611a2f565b6040519080825280601f01601f191660200182016040528015611780576020820181803683370190505b5090505b8415610ecc57611795600183611d21565b91506117a2600a86611e0e565b6117ad906030611ca9565b60f81b8183815181106117c2576117c2611cc1565b60200101906001600160f81b031916908160001a9053506117e4600a86611dfa565b9450611784565b8280546117f790611c0a565b90600052602060002090601f016020900481019282611819576000855561185f565b82601f1061183257805160ff191683800117855561185f565b8280016001018555821561185f579182015b8281111561185f578251825591602001919060010190611844565b5061186b92915061186f565b5090565b5b8082111561186b5760008155600101611870565b6001600160e01b0319811681146104c257600080fd5b6000602082840312156118ac57600080fd5b81356115d981611884565b60005b838110156118d25781810151838201526020016118ba565b83811115610dbd5750506000910152565b600081518084526118fb8160208601602086016118b7565b601f01601f19169290920160200192915050565b6020815260006115d960208301846118e3565b60006020828403121561193457600080fd5b5035919050565b80356001600160a01b038116811461195257600080fd5b919050565b6000806040838503121561196a57600080fd5b6119738361193b565b946020939093013593505050565b60008060006060848603121561199657600080fd5b61199f8461193b565b92506119ad6020850161193b565b9150604084013590509250925092565b602080825282518282018190526000919060409081850190868401855b82811015611a2257815180518552868101516001600160a01b0390811688870152868201511686860152606090810151151590850152608090930192908501906001016119da565b5091979650505050505050565b634e487b7160e01b600052604160045260246000fd5b600067ffffffffffffffff80841115611a6057611a60611a2f565b604051601f8501601f19908116603f01168101908282118183101715611a8857611a88611a2f565b81604052809350858152868686011115611aa157600080fd5b858560208301376000602087830101525050509392505050565b600060208284031215611acd57600080fd5b813567ffffffffffffffff811115611ae457600080fd5b8201601f81018413611af557600080fd5b610ecc84823560208401611a45565b600060208284031215611b1657600080fd5b6115d98261193b565b60008060408385031215611b3257600080fd5b611b3b8361193b565b915060208301358015158114611b5057600080fd5b809150509250929050565b60008060008060808587031215611b7157600080fd5b611b7a8561193b565b9350611b886020860161193b565b925060408501359150606085013567ffffffffffffffff811115611bab57600080fd5b8501601f81018713611bbc57600080fd5b611bcb87823560208401611a45565b91505092959194509250565b60008060408385031215611bea57600080fd5b611bf38361193b565b9150611c016020840161193b565b90509250929050565b600181811c90821680611c1e57607f821691505b60208210811415611c3f57634e487b7160e01b600052602260045260246000fd5b50919050565b6020808252602e908201527f4552433732313a2063616c6c6572206973206e6f7420746f6b656e206f776e6560408201526d1c881b9bdc88185c1c1c9bdd995960921b606082015260800190565b634e487b7160e01b600052601160045260246000fd5b60008219821115611cbc57611cbc611c93565b500190565b634e487b7160e01b600052603260045260246000fd5b6000600019821415611ceb57611ceb611c93565b5060010190565b60008351611d048184602088016118b7565b835190830190611d188183602088016118b7565b01949350505050565b600082821015611d3357611d33611c93565b500390565b60208082526032908201527f4552433732313a207472616e7366657220746f206e6f6e20455243373231526560408201527131b2b4bb32b91034b6b83632b6b2b73a32b960711b606082015260800190565b6001600160a01b0385811682528416602082015260408101839052608060608201819052600090611dbd908301846118e3565b9695505050505050565b600060208284031215611dd957600080fd5b81516115d981611884565b634e487b7160e01b600052601260045260246000fd5b600082611e0957611e09611de4565b500490565b600082611e1d57611e1d611de4565b50069056fea26469706673582212201bd6060002dab02a9aed2e72cf107d4cc088ac72633242a63f1dfb21a8cbf6df64736f6c63430008090033",
  "linkReferences": {},
  "deployedLinkReferences": {}
}