{
  "_format": "hh-sol-artifact-1",
  "contractName": "userTable",
  "sourceName": "contracts/UserTable.sol",
  "abi": [
    {
      "inputs": [],
      "stateMutability": "nonpayable",
      "type": "constructor"
    },
    {
      "anonymous": false,
      "inputs": [
        {
          "indexed": true,
          "internalType": "address",
          "name": "owner",
          "type": "address"
        },
        {
          "indexed": true,
          "internalType": "address",
          "name": "approved",
          "type": "address"
        },
        {
          "indexed": true,
          "internalType": "uint256",
          "name": "tokenId",
          "type": "uint256"
        }
      ],
      "name": "Approval",
      "type": "event"
    },
    {
      "anonymous": false,
      "inputs": [
        {
          "indexed": true,
          "internalType": "address",
          "name": "owner",
          "type": "address"
        },
        {
          "indexed": true,
          "internalType": "address",
          "name": "operator",
          "type": "address"
        },
        {
          "indexed": false,
          "internalType": "bool",
          "name": "approved",
          "type": "bool"
        }
      ],
      "name": "ApprovalForAll",
      "type": "event"
    },
    {
      "anonymous": false,
      "inputs": [
        {
          "indexed": true,
          "internalType": "address",
          "name": "from",
          "type": "address"
        },
        {
          "indexed": true,
          "internalType": "address",
          "name": "to",
          "type": "address"
        },
        {
          "indexed": true,
          "internalType": "uint256",
          "name": "tokenId",
          "type": "uint256"
        }
      ],
      "name": "Transfer",
      "type": "event"
    },
    {
      "inputs": [
        {
          "internalType": "address",
          "name": "to",
          "type": "address"
        },
        {
          "internalType": "uint256",
          "name": "tokenId",
          "type": "uint256"
        }
      ],
      "name": "approve",
      "outputs": [],
      "stateMutability": "nonpayable",
      "type": "function"
    },
    {
      "inputs": [
        {
          "internalType": "address",
          "name": "owner",
          "type": "address"
        }
      ],
      "name": "balanceOf",
      "outputs": [
        {
          "internalType": "uint256",
          "name": "",
          "type": "uint256"
        }
      ],
      "stateMutability": "view",
      "type": "function"
    },
    {
      "inputs": [],
      "name": "getAllFiles",
      "outputs": [
        {
          "components": [
            {
              "internalType": "uint256",
              "name": "fileIndex",
              "type": "uint256"
            },
            {
              "internalType": "string",
              "name": "name",
              "type": "string"
            },
            {
              "internalType": "string",
              "name": "imageURI",
              "type": "string"
            },
            {
              "internalType": "uint256",
              "name": "forAll",
              "type": "uint256"
            },
            {
              "internalType": "bool",
              "name": "sharable",
              "type": "bool"
            }
          ],
          "internalType": "struct userTable.FileDetails[]",
          "name": "",
          "type": "tuple[]"
        }
      ],
      "stateMutability": "view",
      "type": "function"
    },
    {
      "inputs": [
        {
          "internalType": "uint256",
          "name": "tokenId",
          "type": "uint256"
        }
      ],
      "name": "getApproved",
      "outputs": [
        {
          "internalType": "address",
          "name": "",
          "type": "address"
        }
      ],
      "stateMutability": "view",
      "type": "function"
    },
    {
      "inputs": [],
      "name": "getCounter",
      "outputs": [
        {
          "internalType": "uint256",
          "name": "",
          "type": "uint256"
        }
      ],
      "stateMutability": "view",
      "type": "function"
    },
    {
      "inputs": [],
      "name": "getUserFiless",
      "outputs": [
        {
          "internalType": "uint256[]",
          "name": "",
          "type": "uint256[]"
        }
      ],
      "stateMutability": "view",
      "type": "function"
    },
    {
      "inputs": [
        {
          "internalType": "address",
          "name": "owner",
          "type": "address"
        },
        {
          "internalType": "address",
          "name": "operator",
          "type": "address"
        }
      ],
      "name": "isApprovedForAll",
      "outputs": [
        {
          "internalType": "bool",
          "name": "",
          "type": "bool"
        }
      ],
      "stateMutability": "view",
      "type": "function"
    },
    {
      "inputs": [
        {
          "internalType": "uint256",
          "name": "_characterIndex",
          "type": "uint256"
        }
      ],
      "name": "mintFileNFT",
      "outputs": [],
      "stateMutability": "nonpayable",
      "type": "function"
    },
    {
      "inputs": [],
      "name": "name",
      "outputs": [
        {
          "internalType": "string",
          "name": "",
          "type": "string"
        }
      ],
      "stateMutability": "view",
      "type": "function"
    },
    {
      "inputs": [
        {
          "internalType": "uint256",
          "name": "",
          "type": "uint256"
        }
      ],
      "name": "nftHolders",
      "outputs": [
        {
          "internalType": "address",
          "name": "",
          "type": "address"
        }
      ],
      "stateMutability": "view",
      "type": "function"
    },
    {
      "inputs": [
        {
          "internalType": "address",
          "name": "",
          "type": "address"
        },
        {
          "internalType": "uint256",
          "name": "",
          "type": "uint256"
        }
      ],
      "name": "ownerItems",
      "outputs": [
        {
          "internalType": "uint256",
          "name": "",
          "type": "uint256"
        }
      ],
      "stateMutability": "view",
      "type": "function"
    },
    {
      "inputs": [
        {
          "internalType": "uint256",
          "name": "tokenId",
          "type": "uint256"
        }
      ],
      "name": "ownerOf",
      "outputs": [
        {
          "internalType": "address",
          "name": "",
          "type": "address"
        }
      ],
      "stateMutability": "view",
      "type": "function"
    },
    {
      "inputs": [
        {
          "internalType": "address",
          "name": "from",
          "type": "address"
        },
        {
          "internalType": "address",
          "name": "to",
          "type": "address"
        },
        {
          "internalType": "uint256",
          "name": "tokenId",
          "type": "uint256"
        }
      ],
      "name": "safeTransferFrom",
      "outputs": [],
      "stateMutability": "nonpayable",
      "type": "function"
    },
    {
      "inputs": [
        {
          "internalType": "address",
          "name": "from",
          "type": "address"
        },
        {
          "internalType": "address",
          "name": "to",
          "type": "address"
        },
        {
          "internalType": "uint256",
          "name": "tokenId",
          "type": "uint256"
        },
        {
          "internalType": "bytes",
          "name": "data",
          "type": "bytes"
        }
      ],
      "name": "safeTransferFrom",
      "outputs": [],
      "stateMutability": "nonpayable",
      "type": "function"
    },
    {
      "inputs": [
        {
          "internalType": "address",
          "name": "operator",
          "type": "address"
        },
        {
          "internalType": "bool",
          "name": "approved",
          "type": "bool"
        }
      ],
      "name": "setApprovalForAll",
      "outputs": [],
      "stateMutability": "nonpayable",
      "type": "function"
    },
    {
      "inputs": [
        {
          "internalType": "string",
          "name": "BaseURI",
          "type": "string"
        }
      ],
      "name": "setBaseURI",
      "outputs": [],
      "stateMutability": "nonpayable",
      "type": "function"
    },
    {
      "inputs": [
        {
          "internalType": "bytes4",
          "name": "interfaceId",
          "type": "bytes4"
        }
      ],
      "name": "supportsInterface",
      "outputs": [
        {
          "internalType": "bool",
          "name": "",
          "type": "bool"
        }
      ],
      "stateMutability": "view",
      "type": "function"
    },
    {
      "inputs": [],
      "name": "symbol",
      "outputs": [
        {
          "internalType": "string",
          "name": "",
          "type": "string"
        }
      ],
      "stateMutability": "view",
      "type": "function"
    },
    {
      "inputs": [],
      "name": "tokenCounter",
      "outputs": [
        {
          "internalType": "uint256",
          "name": "",
          "type": "uint256"
        }
      ],
      "stateMutability": "view",
      "type": "function"
    },
    {
      "inputs": [
        {
          "internalType": "uint256",
          "name": "_tokenId",
          "type": "uint256"
        }
      ],
      "name": "tokenURI",
      "outputs": [
        {
          "internalType": "string",
          "name": "",
          "type": "string"
        }
      ],
      "stateMutability": "pure",
      "type": "function"
    },
    {
      "inputs": [
        {
          "internalType": "address",
          "name": "from",
          "type": "address"
        },
        {
          "internalType": "address",
          "name": "to",
          "type": "address"
        },
        {
          "internalType": "uint256",
          "name": "tokenId",
          "type": "uint256"
        }
      ],
      "name": "transferFrom",
      "outputs": [],
      "stateMutability": "nonpayable",
      "type": "function"
    }
  ],
  "bytecode": "0x60806040523480156200001157600080fd5b50604080518082018252600e81526d4b657a6179612053746f7261676560901b60208083019182528351808501909452600384526225a2ad60e91b908401528151919291620000639160009162000087565b5080516200007990600190602084019062000087565b50506000600655506200016a565b82805462000095906200012d565b90600052602060002090601f016020900481019282620000b9576000855562000104565b82601f10620000d457805160ff191683800117855562000104565b8280016001018555821562000104579182015b8281111562000104578251825591602001919060010190620000e7565b506200011292915062000116565b5090565b5b8082111562000112576000815560010162000117565b600181811c908216806200014257607f821691505b602082108114156200016457634e487b7160e01b600052602260045260246000fd5b50919050565b611940806200017a6000396000f3fe608060405234801561001057600080fd5b50600436106101375760003560e01c806395d89b41116100b8578063cc6c1a5e1161007c578063cc6c1a5e14610282578063d082e38114610297578063e985e9c5146102a0578063f524c151146102dc578063fd32dd9e146102ef578063ff24b5d51461031857600080fd5b806395d89b411461022e578063a22cb46514610236578063b29c489614610249578063b88d4fde1461025c578063c87b56dd1461026f57600080fd5b806342842e0e116100ff57806342842e0e146101cc57806355f804b3146101df5780636352211e146101f257806370a08231146102055780638ada066e1461022657600080fd5b806301ffc9a71461013c57806306fdde0314610164578063081812fc14610179578063095ea7b3146101a457806323b872dd146101b9575b600080fd5b61014f61014a36600461127e565b61032d565b60405190151581526020015b60405180910390f35b61016c61037f565b60405161015b91906112fa565b61018c61018736600461130d565b610411565b6040516001600160a01b03909116815260200161015b565b6101b76101b2366004611342565b610438565b005b6101b76101c736600461136c565b610553565b6101b76101da36600461136c565b610584565b6101b76101ed366004611434565b61059f565b61018c61020036600461130d565b6105b6565b61021861021336600461147d565b610616565b60405190815260200161015b565b600654610218565b61016c61069c565b6101b7610244366004611498565b6106ab565b6101b761025736600461130d565b6106b6565b6101b761026a3660046114d4565b610734565b61016c61027d36600461130d565b61076c565b61028a6107a3565b60405161015b9190611550565b61021860065481565b61014f6102ae366004611594565b6001600160a01b03918216600090815260056020908152604080832093909416825291909152205460ff1690565b6102186102ea366004611342565b610803565b61018c6102fd36600461130d565b6009602052600090815260409020546001600160a01b031681565b610320610834565b60405161015b91906115c7565b60006001600160e01b031982166380ac58cd60e01b148061035e57506001600160e01b03198216635b5e139f60e01b145b8061037957506301ffc9a760e01b6001600160e01b03198316145b92915050565b60606000805461038e9061166e565b80601f01602080910402602001604051908101604052809291908181526020018280546103ba9061166e565b80156104075780601f106103dc57610100808354040283529160200191610407565b820191906000526020600020905b8154815290600101906020018083116103ea57829003601f168201915b5050505050905090565b600061041c826109e0565b506000908152600460205260409020546001600160a01b031690565b6000610443826105b6565b9050806001600160a01b0316836001600160a01b031614156104b65760405162461bcd60e51b815260206004820152602160248201527f4552433732313a20617070726f76616c20746f2063757272656e74206f776e656044820152603960f91b60648201526084015b60405180910390fd5b336001600160a01b03821614806104d257506104d281336102ae565b6105445760405162461bcd60e51b815260206004820152603e60248201527f4552433732313a20617070726f76652063616c6c6572206973206e6f7420746f60448201527f6b656e206f776e6572206e6f7220617070726f76656420666f7220616c6c000060648201526084016104ad565b61054e8383610a42565b505050565b61055d3382610ab0565b6105795760405162461bcd60e51b81526004016104ad906116a9565b61054e838383610b2f565b61054e83838360405180602001604052806000815250610734565b80516105b29060079060208401906111cf565b5050565b6000818152600260205260408120546001600160a01b0316806103795760405162461bcd60e51b8152602060048201526018602482015277115490cdcc8c4e881a5b9d985b1a59081d1bdad95b88125160421b60448201526064016104ad565b60006001600160a01b0382166106805760405162461bcd60e51b815260206004820152602960248201527f4552433732313a2061646472657373207a65726f206973206e6f7420612076616044820152683634b21037bbb732b960b91b60648201526084016104ad565b506001600160a01b031660009081526003602052604090205490565b60606001805461038e9061166e565b6105b2338383610ccb565b6106c233600654610d9a565b336000908152600a602090815260408083206006548154600181018355918552938390200192909255815160608101909252603080835261071992916118db9083013960065461071390600161170d565b83610db4565b60016006600082825461072c919061170d565b909155505050565b61073e3383610ab0565b61075a5760405162461bcd60e51b81526004016104ad906116a9565b61076684848484610dfb565b50505050565b6060600061077983610e2e565b90508060405160200161078c9190611725565b604051602081830303815290604052915050919050565b336000908152600a602090815260409182902080548351818402810184019094528084526060939283018282801561040757602002820191906000526020600020905b8154815260200190600101908083116107e6575050505050905090565b600a602052816000526040600020818154811061081f57600080fd5b90600052602060002001600091509150505481565b60606008805480602002602001604051908101604052809291908181526020016000905b828210156109d757838290600052602060002090600502016040518060a0016040529081600082015481526020016001820180546108959061166e565b80601f01602080910402602001604051908101604052809291908181526020018280546108c19061166e565b801561090e5780601f106108e35761010080835404028352916020019161090e565b820191906000526020600020905b8154815290600101906020018083116108f157829003601f168201915b505050505081526020016002820180546109279061166e565b80601f01602080910402602001604051908101604052809291908181526020018280546109539061166e565b80156109a05780601f10610975576101008083540402835291602001916109a0565b820191906000526020600020905b81548152906001019060200180831161098357829003601f168201915b5050509183525050600382015460208083019190915260049092015460ff1615156040909101529082526001929092019101610858565b50505050905090565b6000818152600260205260409020546001600160a01b0316610a3f5760405162461bcd60e51b8152602060048201526018602482015277115490cdcc8c4e881a5b9d985b1a59081d1bdad95b88125160421b60448201526064016104ad565b50565b600081815260046020526040902080546001600160a01b0319166001600160a01b0384169081179091558190610a77826105b6565b6001600160a01b03167f8c5be1e5ebec7d5bd14f71427d1e84f3dd0314c0f7b2291e5b200ac8c7c3b92560405160405180910390a45050565b600080610abc836105b6565b9050806001600160a01b0316846001600160a01b03161480610b0357506001600160a01b0380821660009081526005602090815260408083209388168352929052205460ff165b80610b275750836001600160a01b0316610b1c84610411565b6001600160a01b0316145b949350505050565b826001600160a01b0316610b42826105b6565b6001600160a01b031614610ba65760405162461bcd60e51b815260206004820152602560248201527f4552433732313a207472616e736665722066726f6d20696e636f72726563742060448201526437bbb732b960d91b60648201526084016104ad565b6001600160a01b038216610c085760405162461bcd60e51b8152602060048201526024808201527f4552433732313a207472616e7366657220746f20746865207a65726f206164646044820152637265737360e01b60648201526084016104ad565b610c13600082610a42565b6001600160a01b0383166000908152600360205260408120805460019290610c3c908490611783565b90915550506001600160a01b0382166000908152600360205260408120805460019290610c6a90849061170d565b909155505060008181526002602052604080822080546001600160a01b0319166001600160a01b0386811691821790925591518493918716917fddf252ad1be2c89b69c2b068fc378daa952ba7f163c4a11628f55a4df523b3ef91a4505050565b816001600160a01b0316836001600160a01b03161415610d2d5760405162461bcd60e51b815260206004820152601960248201527f4552433732313a20617070726f766520746f2063616c6c65720000000000000060448201526064016104ad565b6001600160a01b03838116600081815260056020908152604080832094871680845294825291829020805460ff191686151590811790915591519182527f17307eab39ab6107e8899845ad3d59bd9653f200f220920489ca2b5937696c31910160405180910390a3505050565b6105b2828260405180602001604052806000815250610f2c565b61054e838383604051602401610dcc9392919061179a565b60408051601f198184030181529190526020810180516001600160e01b031663969cdd0360e01b179052610f5f565b610e06848484610b2f565b610e1284848484610f80565b6107665760405162461bcd60e51b81526004016104ad906117bf565b606081610e525750506040805180820190915260018152600360fc1b602082015290565b8160005b8115610e7c5780610e6681611811565b9150610e759050600a83611842565b9150610e56565b60008167ffffffffffffffff811115610e9757610e976113a8565b6040519080825280601f01601f191660200182016040528015610ec1576020820181803683370190505b5090505b8415610b2757610ed6600183611783565b9150610ee3600a86611856565b610eee90603061170d565b60f81b818381518110610f0357610f0361186a565b60200101906001600160f81b031916908160001a905350610f25600a86611842565b9450610ec5565b610f36838361108d565b610f436000848484610f80565b61054e5760405162461bcd60e51b81526004016104ad906117bf565b80516a636f6e736f6c652e6c6f67602083016000808483855afa5050505050565b60006001600160a01b0384163b1561108257604051630a85bd0160e11b81526001600160a01b0385169063150b7a0290610fc4903390899088908890600401611880565b602060405180830381600087803b158015610fde57600080fd5b505af192505050801561100e575060408051601f3d908101601f1916820190925261100b918101906118bd565b60015b611068573d80801561103c576040519150601f19603f3d011682016040523d82523d6000602084013e611041565b606091505b5080516110605760405162461bcd60e51b81526004016104ad906117bf565b805181602001fd5b6001600160e01b031916630a85bd0160e11b149050610b27565b506001949350505050565b6001600160a01b0382166110e35760405162461bcd60e51b815260206004820181905260248201527f4552433732313a206d696e7420746f20746865207a65726f206164647265737360448201526064016104ad565b6000818152600260205260409020546001600160a01b0316156111485760405162461bcd60e51b815260206004820152601c60248201527f4552433732313a20746f6b656e20616c7265616479206d696e7465640000000060448201526064016104ad565b6001600160a01b038216600090815260036020526040812080546001929061117190849061170d565b909155505060008181526002602052604080822080546001600160a01b0319166001600160a01b03861690811790915590518392907fddf252ad1be2c89b69c2b068fc378daa952ba7f163c4a11628f55a4df523b3ef908290a45050565b8280546111db9061166e565b90600052602060002090601f0160209004810192826111fd5760008555611243565b82601f1061121657805160ff1916838001178555611243565b82800160010185558215611243579182015b82811115611243578251825591602001919060010190611228565b5061124f929150611253565b5090565b5b8082111561124f5760008155600101611254565b6001600160e01b031981168114610a3f57600080fd5b60006020828403121561129057600080fd5b813561129b81611268565b9392505050565b60005b838110156112bd5781810151838201526020016112a5565b838111156107665750506000910152565b600081518084526112e68160208601602086016112a2565b601f01601f19169290920160200192915050565b60208152600061129b60208301846112ce565b60006020828403121561131f57600080fd5b5035919050565b80356001600160a01b038116811461133d57600080fd5b919050565b6000806040838503121561135557600080fd5b61135e83611326565b946020939093013593505050565b60008060006060848603121561138157600080fd5b61138a84611326565b925061139860208501611326565b9150604084013590509250925092565b634e487b7160e01b600052604160045260246000fd5b600067ffffffffffffffff808411156113d9576113d96113a8565b604051601f8501601f19908116603f01168101908282118183101715611401576114016113a8565b8160405280935085815286868601111561141a57600080fd5b858560208301376000602087830101525050509392505050565b60006020828403121561144657600080fd5b813567ffffffffffffffff81111561145d57600080fd5b8201601f8101841361146e57600080fd5b610b27848235602084016113be565b60006020828403121561148f57600080fd5b61129b82611326565b600080604083850312156114ab57600080fd5b6114b483611326565b9150602083013580151581146114c957600080fd5b809150509250929050565b600080600080608085870312156114ea57600080fd5b6114f385611326565b935061150160208601611326565b925060408501359150606085013567ffffffffffffffff81111561152457600080fd5b8501601f8101871361153557600080fd5b611544878235602084016113be565b91505092959194509250565b6020808252825182820181905260009190848201906040850190845b818110156115885783518352928401929184019160010161156c565b50909695505050505050565b600080604083850312156115a757600080fd5b6115b083611326565b91506115be60208401611326565b90509250929050565b60006020808301818452808551808352604092508286019150828160051b87010184880160005b8381101561166057603f19898403018552815160a08151855288820151818a87015261161c828701826112ce565b915050878201518582038987015261163482826112ce565b6060848101519088015260809384015115159390960192909252505093860193908601906001016115ee565b509098975050505050505050565b600181811c9082168061168257607f821691505b602082108114156116a357634e487b7160e01b600052602260045260246000fd5b50919050565b6020808252602e908201527f4552433732313a2063616c6c6572206973206e6f7420746f6b656e206f776e6560408201526d1c881b9bdc88185c1c1c9bdd995960921b606082015260800190565b634e487b7160e01b600052601160045260246000fd5b60008219821115611720576117206116f7565b500190565b7f68747470733a2f2f746573746e65742e7461626c656c616e642e6e6574776f7281526f6b2f7461626c65732f3436392f69642f60801b6020820152600082516117768160308501602087016112a2565b9190910160300192915050565b600082821015611795576117956116f7565b500390565b6060815260006117ad60608301866112ce565b60208301949094525060400152919050565b60208082526032908201527f4552433732313a207472616e7366657220746f206e6f6e20455243373231526560408201527131b2b4bb32b91034b6b83632b6b2b73a32b960711b606082015260800190565b6000600019821415611825576118256116f7565b5060010190565b634e487b7160e01b600052601260045260246000fd5b6000826118515761185161182c565b500490565b6000826118655761186561182c565b500690565b634e487b7160e01b600052603260045260246000fd5b6001600160a01b03858116825284166020820152604081018390526080606082018190526000906118b3908301846112ce565b9695505050505050565b6000602082840312156118cf57600080fd5b815161129b8161126856fe46696c65206372656174656420772f20746f6b656e496420257320616e6420636861726163746572496e646578202573a2646970667358221220874244c7b9c72a1663991255144092ccc110f11fbd9053ce10c523ab1c7736b164736f6c63430008090033",
  "linkReferences": {},
  "deployedLinkReferences": {}
}